1AIRLINE STANDARD SCHEDULE DATA SET                                                                                                                                                            001000001
00000000000000000000000000000000000000000000000000000000000000000000000000000000000000000000000000000000000000000000000000000000000000000000000000000000000000000000000000000000000000000000000000000000
00000000000000000000000000000000000000000000000000000000000000000000000000000000000000000000000000000000000000000000000000000000000000000000000000000000000000000000000000000000000000000000000000000000
00000000000000000000000000000000000000000000000000000000000000000000000000000000000000000000000000000000000000000000000000000000000000000000000000000000000000000000000000000000000000000000000000000000
00000000000000000000000000000000000000000000000000000000000000000000000000000000000000000000000000000000000000000000000000000000000000000000000000000000000000000000000000000000000000000000000000000000
2UXK      S25 30MAR2525OCT2520MAR25                           XK20MAR25C                                                                                                                      0817000002
00000000000000000000000000000000000000000000000000000000000000000000000000000000000000000000000000000000000000000000000000000000000000000000000000000000000000000000000000000000000000000000000000000000
00000000000000000000000000000000000000000000000000000000000000000000000000000000000000000000000000000000000000000000000000000000000000000000000000000000000000000000000000000000000000000000000000000000
00000000000000000000000000000000000000000000000000000000000000000000000000000000000000000000000000000000000000000000000000000000000000000000000000000000000000000000000000000000000000000000000000000000
00000000000000000000000000000000000000000000000000000000000000000000000000000000000000000000000000000000000000000000000000000000000000000000000000000000000000000000000000000000000000000000000000000000
3 XK  1010101J30MAR2513APR25      7 NCE10351035+0200  AJA11251125+0200  AT7                                                              XK  104                            Y72                   000003
3 XK  1010201J31MAR2507APR251       NCE07150715+0200  AJA08050805+0200  AT7                                                              XK  130                            Y72                   000004
3 XK  1010301J01APR2522APR25 2      NCE07150715+0200  AJA08050805+0200  AT7                                                              XK  106                            Y72                   000005
3 XK  1010401J02APR2523APR25  3     NCE07150715+0200  AJA08050805+0200  AT7                                                              XK  130                            Y72                   000006
3 XK  1010501J03APR2510APR25   4    NCE07150715+0200  AJA08050805+0200  AT7                                                              XK  104                            Y72                   000007
3 XK  1010601J04APR2518APR25    5   NCE07150715+0200  AJA08050805+0200  AT7                                                              XK  104                            Y72                   000008
3 XK  1010701J05APR2528JUN25     6  NCE07000700+0200  AJA07500750+0200  AT7                                                              XK  152                            Y72                   000009
3 XK  1010801J14APR2502JUN251       NCE07150715+0200  AJA08050805+0200  AT7                                                              XK  104                            Y72                   000010
3 XK  1010901J17APR2502OCT25   4    NCE07150715+0200  AJA08050805+0200  AT7                                                              XK  734                            Y72                   000011
3 XK  1011001J20APR2520APR25      7 NCE07000700+0200  AJA07500750+0200  AT7                                                              XK  104                            Y72                   000012
3 XK  1011101J25APR2523MAY25    5   NCE07150715+0200  AJA08050805+0200  AT7                                                              XK  714                            Y72                   000013
3 XK  1011201J27APR2527APR25      7 NCE07000700+0200  AJA07500750+0200  AT7                                                              XK  150                            Y72                   000014
3 XK  1011301J29APR2503JUN25 2      NCE07150715+0200  AJA08050805+0200  AT7                                                              XK  714                            Y72                   000015
3 XK  1011401J30APR2507MAY25  3     NCE07150715+0200  AJA08050805+0200  AT7                                                              XK 5200                            Y72                   000016
3 XK  1011501J04MAY2504MAY25      7 NCE07000700+0200  AJA07500750+0200  AT7                                                              XK  104                            Y72                   000017
3 XK  1011601J11MAY2511MAY25      7 NCE07000700+0200  AJA07500750+0200  AT7                                                              XK  132                            Y72                   000018
3 XK  1011701J14MAY2521MAY25  3     NCE07150715+0200  AJA08050805+0200  AT7                                                              XK  130                            Y72                   000019
3 XK  1011801J18MAY2508JUN25      7 NCE07000700+0200  AJA07500750+0200  AT7                                                              XK  150                            Y72                   000020
3 XK  1011901J28MAY2528MAY25  3     NCE07150715+0200  AJA08050805+0200  AT7                                                              XK  720                            Y72                   000021
3 XK  1012001J30MAY2506JUN25    5   NCE07150715+0200  AJA08050805+0200  AT7                                                              XK  104                            Y72                   000022
3 XK  1012101J04JUN2522OCT25  3     NCE07150715+0200  AJA08050805+0200  AT7                                                              XK  130                            Y72                   000023
3 XK  1012201J09JUN2509JUN251       NCE07150715+0200  AJA08050805+0200  AT7                                                              XK 5200                            Y72                   000024
3 XK  1012301J10JUN2510JUN25 2      NCE07150715+0200  AJA08050805+0200  AT7                                                              XK  106                            Y72                   000025
3 XK  1012401J13JUN2523SEP25 2  5   NCE07150715+0200  AJA08050805+0200  AT7                                                              XK  714                            Y72                   000026
3 XK  1012501J15JUN2522JUN25      7 NCE07000700+0200  AJA07500750+0200  AT7                                                              XK 5200                            Y72                   000027
3 XK  1012601J16JUN2507JUL251       NCE07150715+0200  AJA08050805+0200  AT7                                                              XK  104                            Y72                   000028
3 XK  1012701J29JUN2531AUG25      7 NCE07000700+0200  AJA07500750+0200  AT7                                                              XK  720                            Y72                   000029
3 XK  1012801J05JUL2519JUL25     6  NCE07000700+0200  AJA07500750+0200  AT7                                                              XK  520                            Y72                   000030
3 XK  1012901J14JUL2514JUL251       NCE07150715+0200  AJA08050805+0200  AT7                                                              XK 5200                            Y72                   000031
3 XK  1013001J21JUL2528JUL251       NCE07150715+0200  AJA08050805+0200  AT7                                                              XK  104                            Y72                   000032
3 XK  1013101J26JUL2509AUG25     6  NCE07000700+0200  AJA07500750+0200  AT7                                                              XK 5200                            Y72                   000033
3 XK  1013201J04AUG2511AUG251       NCE07150715+0200  AJA08050805+0200  AT7                                                              XK 5200                            Y72                   000034
3 XK  1013301J16AUG2516AUG25     6  NCE07000700+0200  AJA07500750+0200  AT7                                                              XK 5600                            Y72                   000035
3 XK  1013401J18AUG2518AUG251       NCE07150715+0200  AJA08050805+0200  AT7                                                              XK 5600                            Y72                   000036
3 XK  1013501J23AUG2530AUG25     6  NCE07000700+0200  AJA07500750+0200  AT7                                                              XK 5200                            Y72                   000037
3 XK  1013601J25AUG2522SEP251       NCE07150715+0200  AJA08050805+0200  AT7                                                              XK  104                            Y72                   000038
3 XK  1013701J06SEP2525OCT25     6  NCE07000700+0200  AJA07500750+0200  AT7                                                              XK  152                            Y72                   000039
3 XK  1013801J07SEP2528SEP25      7 NCE07000700+0200  AJA07500750+0200  AT7                                                              XK  104                            Y72                   000040
3 XK  1013901J26SEP2526SEP25    5   NCE07150715+0200  AJA08050805+0200  AT7                                                              XK 5200                            Y72                   000041
3 XK  1014001J29SEP2520OCT251       NCE07150715+0200  AJA08050805+0200  AT7                                                              XK  130                            Y72                   000042
3 XK  1014101J30SEP2521OCT25 2      NCE07150715+0200  AJA08050805+0200  AT7                                                              XK  106                            Y72                   000043
3 XK  1014201J03OCT2524OCT25   45   NCE07150715+0200  AJA08050805+0200  AT7                                                              XK  104                            Y72                   000044
3 XK  1014301J05OCT2519OCT25      7 NCE10351035+0200  AJA11251125+0200  AT7                                                              XK  104                            Y72                   000045
3 XK  1020101J30MAR2513APR25      7 AJA08550855+0200  NCE09450945+0200  AT7                                                              XK  101                            Y72                   000046
3 XK  1020201J31MAR2525OCT25123456  AJA05300530+0200  NCE06200620+0200  AT7                                                              XK  101                            Y72                   000047
3 XK  1020301J20APR2528SEP25      7 AJA05300530+0200  NCE06200620+0200  AT7                                                              XK  101                            Y72                   000048
3 XK  1020401J05OCT2519OCT25      7 AJA08550855+0200  NCE09450945+0200  AT7                                                              XK  101                            Y72                   000049
3 XK  1030101J30MAR2524OCT25    5 7 NCE15001500+0200  AJA15501550+0200  AT7                                                              XK  106                            Y72                   000050
3 XK  1030201J31MAR2530JUN251       NCE15001500+0200  AJA15501550+0200  AT7                                                              XK  106                            Y72                   000051
3 XK  1030301J03APR2524APR25   4    NCE15001500+0200  AJA15501550+0200  AT7                                                              XK  106                            Y72                   000052
3 XK  1030401J01MAY2508MAY25   4    NCE08450845+0200  AJA09350935+0200  AT7                                                              XK  104                            Y72                   000053
3 XK  1030501J15MAY2526JUN25   4    NCE15001500+0200  AJA15501550+0200  AT7                                                              XK  106                            Y72                   000054
3 XK  1030601J03JUL2528AUG251  4    NCE14401440+0200  AJA15301530+0200  AT7                                                              XK  106                            Y72                   000055
3 XK  1030701J01SEP2523OCT251  4    NCE15001500+0200  AJA15501550+0200  AT7                                                              XK  106                            Y72                   000056
3 XK  1040101J30MAR2519OCT25      7 AJA13351335+0200  NCE14251425+0200  AT7                                                              XK  103                            Y72                   000057
3 XK  1040201J31MAR2530JUN251   5   AJA13351335+0200  NCE14251425+0200  AT7                                                              XK  103                            Y72                   000058
3 XK  1040301J03APR2524APR25   4    AJA13351335+0200  NCE14251425+0200  AT7                                                              XK  103                            Y72                   000059
3 XK  1040401J01MAY2508MAY25   4    AJA10251025+0200  NCE11151115+0200  AT7                                                              XK  311                            Y72                   000060
3 XK  1040501J15MAY2526JUN25   4    AJA13351335+0200  NCE14251425+0200  AT7                                                              XK  103                            Y72                   000061
3 XK  1040601J03JUL2528AUG25   4    AJA13151315+0200  NCE14051405+0200  AT7                                                              XK  103                            Y72                   000062
3 XK  1040701J04JUL2529AUG251   5   AJA13001300+0200  NCE13501350+0200  AT7                                                              XK  103                            Y72                   000063
3 XK  1040801J01SEP2524OCT251  45   AJA13351335+0200  NCE14251425+0200  AT7                                                              XK  103                            Y72                   000064
3 XK  1050101J30MAR2524OCT2512345 7 NCE18101810+0200  AJA19001900+0200  AT7                                                              XK  102                            Y72                   000065
3 XK  1050201J05APR2512APR25     6  NCE18101810+0200  AJA19001900+0200  AT7                                                              XK  150                            Y72                   000066
3 XK  1050301J19APR2527SEP25     6  NCE18101810+0200  AJA19001900+0200  AT7                                                              XK  102                            Y72                   000067
3 XK  1050401J04OCT2525OCT25     6  NCE18101810+0200  AJA19001900+0200  AT7                                                              XK  150                            Y72                   000068
3 XK  1060101J30MAR2525OCT251234567 AJA16201620+0200  NCE17101710+0200  AT7                                                              XK  105                            Y72                   000069
3 XK  1300101J31MAR2507APR251       AJA08350835+0200  LYS10051005+0200  AT7                                                              XK  131                            Y72                   000070
3 XK  1300201J02APR2523APR25  3     AJA08350835+0200  LYS10051005+0200  AT7                                                              XK  131                            Y72                   000071
3 XK  1300301J05APR2528JUN25     6  AJA08450845+0200  LYS09500950+0200  32N                                                              XK  131                            Y186                  000072
3 XK  1300401J14APR2502JUN251       AJA09550955+0200  LYS11001100+0200  32N                                                              XK  131                            Y186                  000073
3 XK  1300501J18APR2520JUN25    5   AJA14151415+0200  LYS15201520+0200  73H                                                              XK  233                            Y186                  000074
3 XK  1300601J20APR2529JUN25      7 AJA09550955+0200  LYS11001100+0200  32N                                                              XK  131                            Y186                  000075
3 XK  1300701J30APR2507MAY25  3     AJA06350635+0200  LYS07400740+0200  320                                                              XK  233                            Y180                  000076
3 XK  1300801J14MAY2521MAY25  3     AJA08350835+0200  LYS10051005+0200  AT7                                                              XK  131                            Y72                   000077
3 XK  1300901J28MAY2528MAY25  3     AJA10251025+0200  LYS11301130+0200  320                                                              XK  131                            Y180                  000078
3 XK  1301001J04JUN2525JUN25  3     AJA08350835+0200  LYS10051005+0200  AT7                                                              XK  131                            Y72                   000079
3 XK  1301101J09JUN2509JUN251       AJA09550955+0200  LYS11001100+0200  320                                                              XK  131                            Y180                  000080
3 XK  1301201J16JUN2530JUN251       AJA09550955+0200  LYS11001100+0200  32N                                                              XK  131                            Y186                  000081
3 XK  1301301J27JUN2527JUN25    5   AJA14151415+0200  LYS15201520+0200  320                                                              XK  233                            Y180                  000082
3 XK  1301401J02JUL2522OCT25  3     AJA08350835+0200  LYS10051005+0200  AT7                                                              XK  131                            Y72                   000083
3 XK  1301501J03JUL2528AUG25   4    AJA08450845+0200  LYS09500950+0200  32N                                                              XK  131                            Y186                  000084
3 XK  1301601J04JUL2529AUG25    5   AJA13351335+0200  LYS14401440+0200  320                                                              XK  233                            Y180                  000085
3 XK  1301701J05JUL2505JUL25     6  AJA08450845+0200  LYS09500950+0200  32N                                                              XK  131                            Y186                  000086
3 XK  1301801J06JUL2524AUG25      7 AJA09550955+0200  LYS11001100+0200  32N                                                              XK  131                            Y186                  000087
3 XK  1301901J07JUL2511AUG251       AJA05000500+0200  LYS06050605+0200  320                                                              XK  233                            Y180                  000088
3 XK  1302001J12JUL2530AUG25     6  AJA08450845+0200  LYS09500950+0200  320                                                              XK  131                            Y180                  000089
3 XK  1302101J18AUG2518AUG251       AJA09400940+0200  LYS10451045+0200  320                                                              XK  131                            Y180                  000090
3 XK  1302201J25AUG2525AUG251       AJA05000500+0200  LYS06050605+0200  320                                                              XK  233                            Y180                  000091
3 XK  1302301J31AUG2531AUG25      7 AJA09550955+0200  LYS11001100+0200  73H                                                              XK  131                            Y186                  000092
3 XK  1302401J01SEP2528SEP251     7 AJA09550955+0200  LYS11001100+0200  32N                                                              XK  131                            Y186                  000093
3 XK  1302501J05SEP2526SEP25    5   AJA14151415+0200  LYS15201520+0200  73H                                                              XK  233                            Y186                  000094
3 XK  1302601J06SEP2525OCT25     6  AJA08450845+0200  LYS09500950+0200  32N                                                              XK  131                            Y186                  000095
3 XK  1302701J29SEP2520OCT251       AJA08350835+0200  LYS10051005+0200  AT7                                                              XK  131                            Y72                   000096
3 XK  1310101J31MAR2507APR251       LYS10551055+0200  AJA12251225+0200  AT7                                                              XK  104                            Y72                   000097
3 XK  1310201J02APR2523APR25  3     LYS10551055+0200  AJA12251225+0200  AT7                                                              XK 5200                            Y72                   000098
3 XK  1310301J05APR2512APR25     6  LYS10551055+0200  AJA11551155+0200  32N                                                              XK  790                            Y186                  000099
3 XK  1310401J14APR2502JUN251       LYS12051205+0200  AJA13051305+0200  32N                                                              XK  154                            Y186                  000100
3 XK  1310501J18APR2509MAY25    5   LYS20052005+0200  AJA21052105+0200  73H                                                              XK  150                            Y186                  000101
3 XK  1310601J19APR2528JUN25     6  LYS10551055+0200  AJA11551155+0200  32N                                                              XK  720                            Y186                  000102
3 XK  1310701J20APR2529JUN25      7 LYS12051205+0200  AJA13051305+0200  32N                                                              XK  154                            Y186                  000103
3 XK  1310801J30APR2507MAY25  3     LYS12351235+0200  AJA13351335+0200  320                                                              XK  790                            Y180                  000104
3 XK  1310901J14MAY2521MAY25  3     LYS10551055+0200  AJA12251225+0200  AT7                                                              XK 5200                            Y72                   000105
3 XK  1311001J16MAY2516MAY25    5   LYS20052005+0200  AJA21052105+0200  73H                                                              XK  790                            Y186                  000106
3 XK  1311101J23MAY2520JUN25    5   LYS20052005+0200  AJA21052105+0200  73H                                                              XK  150                            Y186                  000107
3 XK  1311201J28MAY2528MAY25  3     LYS12351235+0200  AJA13351335+0200  320                                                              XK  790                            Y180                  000108
3 XK  1311301J04JUN2525JUN25  3     LYS10551055+0200  AJA12251225+0200  AT7                                                              XK 5200                            Y72                   000109
3 XK  1311401J09JUN2509JUN251       LYS12051205+0200  AJA13051305+0200  320                                                              XK  154                            Y180                  000110
3 XK  1311501J16JUN2530JUN251       LYS12051205+0200  AJA13051305+0200  32N                                                              XK  154                            Y186                  000111
3 XK  1311601J27JUN2527JUN25    5   LYS20052005+0200  AJA21052105+0200  320                                                              XK  150                            Y180                  000112
3 XK  1311701J02JUL2527AUG25  3     LYS10551055+0200  AJA12251225+0200  AT7                                                              XK 5200                            Y72                   000113
3 XK  1311801J03JUL2528AUG25   4    LYS10551055+0200  AJA11551155+0200  32N                                                              XK  774                            Y186                  000114
3 XK  1311901J04JUL2518JUL25    5   LYS19501950+0200  AJA20502050+0200  320                                                              XK  530                            Y180                  000115
3 XK  1312001J05JUL2505JUL25     6  LYS10551055+0200  AJA11551155+0200  32N                                                              XK  720                            Y186                  000116
3 XK  1312101J06JUL2524AUG25      7 LYS12051205+0200  AJA13051305+0200  32N                                                              XK  774                            Y186                  000117
3 XK  1312201J07JUL2511AUG251       LYS11001100+0200  AJA12001200+0200  320                                                              XK  720                            Y180                  000118
3 XK  1312301J12JUL2530AUG25     6  LYS10551055+0200  AJA11551155+0200  320                                                              XK  720                            Y180                  000119
3 XK  1312401J25JUL2525JUL25    5   LYS19501950+0200  AJA20502050+0200  320                                                              XK  770                            Y180                  000120
3 XK  1312501J01AUG2529AUG25    5   LYS19501950+0200  AJA20502050+0200  320                                                              XK  530                            Y180                  000121
3 XK  1312601J18AUG2518AUG251       LYS11501150+0200  AJA12501250+0200  320                                                              XK  720                            Y180                  000122
3 XK  1312701J25AUG2525AUG251       LYS11001100+0200  AJA12001200+0200  320                                                              XK  720                            Y180                  000123
3 XK  1312801J31AUG2531AUG25      7 LYS12051205+0200  AJA13051305+0200  73H                                                              XK  774                            Y186                  000124
3 XK  1312901J01SEP2528SEP251     7 LYS12051205+0200  AJA13051305+0200  32N                                                              XK  154                            Y186                  000125
3 XK  1313001J03SEP2522OCT25  3     LYS10551055+0200  AJA12251225+0200  AT7                                                              XK  106                            Y72                   000126
3 XK  1313101J05SEP2512SEP25    5   LYS20052005+0200  AJA21052105+0200  73H                                                              XK  530                            Y186                  000127
3 XK  1313201J06SEP2527SEP25     6  LYS10551055+0200  AJA11551155+0200  32N                                                              XK  720                            Y186                  000128
3 XK  1313301J19SEP2526SEP25    5   LYS20052005+0200  AJA21052105+0200  73H                                                              XK  150                            Y186                  000129
3 XK  1313401J29SEP2520OCT251       LYS10551055+0200  AJA12251225+0200  AT7                                                              XK  104                            Y72                   000130
3 XK  1313501J04OCT2504OCT25     6  LYS10551055+0200  AJA11551155+0200  32N                                                              XK  900                            Y186                  000131
3 XK  1313601J11OCT2525OCT25     6  LYS10551055+0200  AJA11551155+0200  32N                                                              XK  790                            Y186                  000132
3 XK  1320101G11MAY2511MAY25      7 AJA08350835+0200  LYS10051005+0200  AT7                                                              XK  133                            Y72                   000133
3 XK  1320201J05JUL2530AUG25     6  AJA12001200+0200  LYS13301330+0200  AT7                                                              XK  133                            Y72                   000134
3 XK  1330101G11MAY2511MAY25      7 LYS10551055+0200  AJA12251225+0200  AT7                                                              XK  104                            Y72                   000135
3 XK  1330201J05JUL2530AUG25     6  LYS14051405+0200  AJA15351535+0200  AT7                                                              XK  106                            Y72                   000136
3 XK  1500101J30MAR2513APR25      7 AJA05150515+0200  MRS06200620+0200  AT7                                                              XK  151                            Y72                   000137
3 XK  1500201J31MAR2507APR251       AJA05000500+0200  MRS05500550+0200  32N                                                              XK  151                            Y186                  000138
3 XK  1500301J01APR2509APR25 23     AJA05000500+0200  MRS05500550+0200  320                                                              XK  151                            Y180                  000139
3 XK  1500401J03APR2508MAY25   4    AJA05000500+0200  MRS05500550+0200  32N                                                              XK  151                            Y186                  000140
3 XK  1500501J04APR2504JUL25    5   AJA05000500+0200  MRS05500550+0200  32N                                                              XK  151                            Y186                  000141
3 XK  1500601J05APR2505APR25     6  AJA05000500+0200  MRS05500550+0200  73H                                                              XK  151                            Y186                  000142
3 XK  1500701J12APR2512APR25     6  AJA05000500+0200  MRS05500550+0200  320                                                              XK  151                            Y180                  000143
3 XK  1500801J14APR2502JUN251       AJA05000500+0200  MRS05500550+0200  73H                                                              XK  151                            Y186                  000144
3 XK  1500901J15APR2523SEP25 2      AJA05000500+0200  MRS05500550+0200  32N                                                              XK  151                            Y186                  000145
3 XK  1501001J16APR2525JUN25  3     AJA05000500+0200  MRS05500550+0200  32N                                                              XK  151                            Y186                  000146
3 XK  1501101J19APR2510MAY25     6  AJA05000500+0200  MRS05500550+0200  73H                                                              XK  151                            Y186                  000147
3 XK  1501201J20APR2520APR25      7 AJA08300830+0200  MRS09350935+0200  AT7                                                              XK  591                            Y72                   000148
3 XK  1501301J27APR2527APR25      7 AJA08300830+0200  MRS09350935+0200  AT7                                                              XK  151                            Y72                   000149
3 XK  1501401J04MAY2511MAY25      7 AJA08300830+0200  MRS09350935+0200  AT7                                                              XK  591                            Y72                   000150
3 XK  1501501J15MAY2515MAY25   4    AJA05000500+0200  MRS05500550+0200  73H                                                              XK  151                            Y186                  000151
3 XK  1501601J17MAY2517MAY25     6  AJA05000500+0200  MRS05500550+0200  320                                                              XK  151                            Y180                  000152
3 XK  1501701J18MAY2508JUN25      7 AJA08300830+0200  MRS09350935+0200  AT7                                                              XK  151                            Y72                   000153
3 XK  1501801J22MAY2526JUN25   4    AJA05000500+0200  MRS05500550+0200  32N                                                              XK  151                            Y186                  000154
3 XK  1501901J24MAY2521JUN25     6  AJA05000500+0200  MRS05500550+0200  73H                                                              XK  151                            Y186                  000155
3 XK  1502001J09JUN2509JUN251       AJA05000500+0200  MRS05500550+0200  32N                                                              XK  151                            Y186                  000156
3 XK  1502101J15JUN2529JUN25      7 AJA08300830+0200  MRS09350935+0200  AT7                                                              XK  591                            Y72                   000157
3 XK  1502201J16JUN2516JUN251       AJA05000500+0200  MRS05500550+0200  73H                                                              XK  151                            Y186                  000158
3 XK  1502301J23JUN2508SEP251       AJA05000500+0200  MRS05500550+0200  320                                                              XK  151                            Y180                  000159
3 XK  1502401J28JUN2528JUN25     6  AJA05000500+0200  MRS05500550+0200  320                                                              XK  151                            Y180                  000160
3 XK  1502501J02JUL2528AUG25  34  7 AJA05000500+0200  MRS05500550+0200  320                                                              XK  151                            Y180                  000161
3 XK  1502601J05JUL2505JUL25     6  AJA05000500+0200  MRS05500550+0200  32N                                                              XK  151                            Y186                  000162
3 XK  1502701J11JUL2529AUG25    5   AJA05000500+0200  MRS05500550+0200  320                                                              XK  151                            Y180                  000163
3 XK  1502801J12JUL2513SEP25     6  AJA05000500+0200  MRS05500550+0200  320                                                              XK  151                            Y180                  000164
3 XK  1502901J31AUG2531AUG25      7 AJA05000500+0200  MRS05500550+0200  32N                                                              XK  151                            Y186                  000165
3 XK  1503001J03SEP2524SEP25  3     AJA05000500+0200  MRS05500550+0200  32N                                                              XK  151                            Y186                  000166
3 XK  1503101J04SEP2524OCT25   45   AJA05000500+0200  MRS05500550+0200  32N                                                              XK  151                            Y186                  000167
3 XK  1503201J07SEP2528SEP25      7 AJA08300830+0200  MRS09350935+0200  AT7                                                              XK  591                            Y72                   000168
3 XK  1503301J15SEP2515SEP251       AJA05000500+0200  MRS05500550+0200  73H                                                              XK  151                            Y186                  000169
3 XK  1503401J20SEP2525OCT25     6  AJA05000500+0200  MRS05500550+0200  73H                                                              XK  151                            Y186                  000170
3 XK  1503501J22SEP2522SEP251       AJA05000500+0200  MRS05500550+0200  320                                                              XK  151                            Y180                  000171
3 XK  1503601J29SEP2520OCT251       AJA05000500+0200  MRS05500550+0200  32N                                                              XK  151                            Y186                  000172
3 XK  1503701J30SEP2521OCT25 2      AJA05000500+0200  MRS05500550+0200  320                                                              XK  151                            Y180                  000173
3 XK  1503801J01OCT2501OCT25  3     AJA05000500+0200  MRS05500550+0200  73H                                                              XK  151                            Y186                  000174
3 XK  1503901J05OCT2519OCT25      7 AJA05150515+0200  MRS06200620+0200  AT7                                                              XK  151                            Y72                   000175
3 XK  1504001J08OCT2522OCT25  3     AJA05000500+0200  MRS05500550+0200  320                                                              XK  151                            Y180                  000176
3 XK  1510101J30MAR2513APR25      7 MRS06550655+0200  AJA08000800+0200  AT7                                                              XK  102                            Y72                   000177
3 XK  1510201J31MAR2507APR251       MRS06500650+0200  AJA07400740+0200  32N                                                              XK  772                            Y186                  000178
3 XK  1510301J01APR2509APR25 23     MRS06500650+0200  AJA07400740+0200  320                                                              XK  154                            Y180                  000179
3 XK  1510401J03APR2508MAY25   4    MRS06500650+0200  AJA07400740+0200  32N                                                              XK  772                            Y186                  000180
3 XK  1510501J04APR2504JUL25    5   MRS06500650+0200  AJA07400740+0200  32N                                                              XK  772                            Y186                  000181
3 XK  1510601J05APR2505APR25     6  MRS06500650+0200  AJA07400740+0200  73H                                                              XK  772                            Y186                  000182
3 XK  1510701J12APR2512APR25     6  MRS06500650+0200  AJA07400740+0200  320                                                              XK  772                            Y180                  000183
3 XK  1510801J14APR2514APR251       MRS06500650+0200  AJA07400740+0200  73H                                                              XK  772                            Y186                  000184
3 XK  1510901J15APR2523SEP25 2      MRS06500650+0200  AJA07400740+0200  32N                                                              XK  772                            Y186                  000185
3 XK  1511001J16APR2525JUN25  3     MRS06500650+0200  AJA07400740+0200  32N                                                              XK  772                            Y186                  000186
3 XK  1511101J19APR2510MAY25     6  MRS06500650+0200  AJA07400740+0200  73H                                                              XK  772                            Y186                  000187
3 XK  1511201J20APR2520APR25      7 MRS06500650+0200  AJA07550755+0200  AT7                                                              XK  150                            Y72                   000188
3 XK  1511301J21APR2502JUN251       MRS06500650+0200  AJA07400740+0200  73H                                                              XK  790                            Y186                  000189
3 XK  1511401J27APR2527APR25      7 MRS10251025+0200  AJA11301130+0200  AT7                                                              XK  104                            Y72                   000190
3 XK  1511501J04MAY2511MAY25      7 MRS06500650+0200  AJA07550755+0200  AT7                                                              XK  150                            Y72                   000191
3 XK  1511601J15MAY2515MAY25   4    MRS06500650+0200  AJA07400740+0200  73H                                                              XK  772                            Y186                  000192
3 XK  1511701J17MAY2517MAY25     6  MRS06500650+0200  AJA07400740+0200  320                                                              XK  772                            Y180                  000193
3 XK  1511801J18MAY2508JUN25      7 MRS10251025+0200  AJA11301130+0200  AT7                                                              XK  104                            Y72                   000194
3 XK  1511901J22MAY2526JUN25   4    MRS06500650+0200  AJA07400740+0200  32N                                                              XK  772                            Y186                  000195
3 XK  1512001J24MAY2521JUN25     6  MRS06500650+0200  AJA07400740+0200  73H                                                              XK  772                            Y186                  000196
3 XK  1512101J09JUN2509JUN251       MRS06500650+0200  AJA07400740+0200  32N                                                              XK  790                            Y186                  000197
3 XK  1512201J15JUN2529JUN25      7 MRS06500650+0200  AJA07550755+0200  AT7                                                              XK  150                            Y72                   000198
3 XK  1512301J16JUN2516JUN251       MRS06500650+0200  AJA07400740+0200  73H                                                              XK  790                            Y186                  000199
3 XK  1512401J23JUN2508SEP251       MRS06500650+0200  AJA07400740+0200  320                                                              XK  790                            Y180                  000200
3 XK  1512501J28JUN2528JUN25     6  MRS06500650+0200  AJA07400740+0200  320                                                              XK  772                            Y180                  000201
3 XK  1512601J02JUL2527AUG25  3   7 MRS06500650+0200  AJA07400740+0200  320                                                              XK  790                            Y180                  000202
3 XK  1512701J03JUL2528AUG25   4    MRS06500650+0200  AJA07400740+0200  320                                                              XK  772                            Y180                  000203
3 XK  1512801J05JUL2505JUL25     6  MRS06500650+0200  AJA07400740+0200  32N                                                              XK  130                            Y186                  000204
3 XK  1512901J11JUL2529AUG25    5   MRS06500650+0200  AJA07400740+0200  320                                                              XK  790                            Y180                  000205
3 XK  1513001J12JUL2530AUG25     6  MRS06500650+0200  AJA07400740+0200  320                                                              XK  130                            Y180                  000206
3 XK  1513101J31AUG2531AUG25      7 MRS06500650+0200  AJA07400740+0200  32N                                                              XK  790                            Y186                  000207
3 XK  1513201J03SEP2524SEP25  3     MRS06500650+0200  AJA07400740+0200  32N                                                              XK  772                            Y186                  000208
3 XK  1513301J04SEP2524OCT25   45   MRS06500650+0200  AJA07400740+0200  32N                                                              XK  772                            Y186                  000209
3 XK  1513401J06SEP2513SEP25     6  MRS06500650+0200  AJA07400740+0200  320                                                              XK  772                            Y180                  000210
3 XK  1513501J07SEP2528SEP25      7 MRS06500650+0200  AJA07550755+0200  AT7                                                              XK  150                            Y72                   000211
3 XK  1513601J15SEP2515SEP251       MRS06500650+0200  AJA07400740+0200  73H                                                              XK  790                            Y186                  000212
3 XK  1513701J20SEP2525OCT25     6  MRS06500650+0200  AJA07400740+0200  73H                                                              XK  772                            Y186                  000213
3 XK  1513801J22SEP2522SEP251       MRS06500650+0200  AJA07400740+0200  320                                                              XK  790                            Y180                  000214
3 XK  1513901J29SEP2529SEP251       MRS06500650+0200  AJA07400740+0200  32N                                                              XK  800                            Y186                  000215
3 XK  1514001J30SEP2521OCT25 2      MRS06500650+0200  AJA07400740+0200  320                                                              XK  154                            Y180                  000216
3 XK  1514101J01OCT2501OCT25  3     MRS06500650+0200  AJA07400740+0200  73H                                                              XK  790                            Y186                  000217
3 XK  1514201J05OCT2519OCT25      7 MRS06550655+0200  AJA08000800+0200  AT7                                                              XK  102                            Y72                   000218
3 XK  1514301J06OCT2520OCT251       MRS06500650+0200  AJA07400740+0200  32N                                                              XK  772                            Y186                  000219
3 XK  1514401J08OCT2522OCT25  3     MRS06500650+0200  AJA07400740+0200  320                                                              XK  790                            Y180                  000220
3 XK  1520101J05APR2528JUN25     6  AJA08200820+0200  MRS09250925+0200  AT7                                                              XK  153                            Y72                   000221
3 XK  1520201J05JUL2505JUL25     6  AJA08450845+0200  MRS09350935+0200  320                                                              XK  153                            Y180                  000222
3 XK  1520301J12JUL2530AUG25     6  AJA08450845+0200  MRS09350935+0200  32N                                                              XK  153                            Y186                  000223
3 XK  1520401J06SEP2525OCT25     6  AJA08200820+0200  MRS09250925+0200  AT7                                                              XK  153                            Y72                   000224
3 XK  1530101J05APR2512APR25     6  MRS10151015+0200  AJA11201120+0200  AT7                                                              XK  720                            Y72                   000225
3 XK  1530201J19APR2517MAY25     6  MRS10151015+0200  AJA11201120+0200  AT7                                                              XK 5200                            Y72                   000226
3 XK  1530301J24MAY2524MAY25     6  MRS10151015+0200  AJA11201120+0200  AT7                                                              XK  106                            Y72                   000227
3 XK  1530401J31MAY2528JUN25     6  MRS10151015+0200  AJA11201120+0200  AT7                                                              XK 5200                            Y72                   000228
3 XK  1530501J05JUL2505JUL25     6  MRS10401040+0200  AJA11301130+0200  320                                                              XK  790                            Y180                  000229
3 XK  1530601J12JUL2530AUG25     6  MRS10401040+0200  AJA11301130+0200  32N                                                              XK  790                            Y186                  000230
3 XK  1530701J06SEP2506SEP25     6  MRS10151015+0200  AJA11201120+0200  AT7                                                              XK 5200                            Y72                   000231
3 XK  1530801J13SEP2504OCT25     6  MRS10151015+0200  AJA11201120+0200  AT7                                                              XK  106                            Y72                   000232
3 XK  1530901J11OCT2525OCT25     6  MRS10151015+0200  AJA11201120+0200  AT7                                                              XK  720                            Y72                   000233
3 XK  1540101J30MAR2529JUN25   4  7 AJA13551355+0200  MRS14451445+0200  32N                                                              XK  155                            Y186                  000234
3 XK  1540201J31MAR2502JUN251       AJA13551355+0200  MRS14451445+0200  32N                                                              XK  155                            Y186                  000235
3 XK  1540301J01APR2509APR25 23     AJA13551355+0200  MRS14451445+0200  320                                                              XK  155                            Y180                  000236
3 XK  1540401J04APR2504JUL25    5   AJA13551355+0200  MRS14451445+0200  32N                                                              XK  155                            Y186                  000237
3 XK  1540501J15APR2524SEP25 23     AJA13551355+0200  MRS14451445+0200  32N                                                              XK  155                            Y186                  000238
3 XK  1540601J09JUN2509JUN251       AJA13551355+0200  MRS14451445+0200  320                                                              XK  155                            Y180                  000239
3 XK  1540701J16JUN2520OCT251       AJA13551355+0200  MRS14451445+0200  32N                                                              XK  155                            Y186                  000240
3 XK  1540801J03JUL2528AUG25   4  7 AJA13551355+0200  MRS14451445+0200  320                                                              XK  155                            Y180                  000241
3 XK  1540901J11JUL2522AUG25    5   AJA13551355+0200  MRS14451445+0200  320                                                              XK  155                            Y180                  000242
3 XK  1541001J29AUG2524OCT25   45 7 AJA13551355+0200  MRS14451445+0200  32N                                                              XK  155                            Y186                  000243
3 XK  1541101J30SEP2521OCT25 2      AJA13551355+0200  MRS14451445+0200  320                                                              XK  155                            Y180                  000244
3 XK  1541201J01OCT2501OCT25  3     AJA13551355+0200  MRS14451445+0200  73H                                                              XK  155                            Y186                  000245
3 XK  1541301J08OCT2522OCT25  3     AJA13551355+0200  MRS14451445+0200  320                                                              XK  155                            Y180                  000246
3 XK  1550101J30MAR2529JUN25   4  7 MRS15301530+0200  AJA16201620+0200  32N                                                              XK  776                            Y186                  000247
3 XK  1550201J31MAR2502JUN251       MRS15301530+0200  AJA16201620+0200  32N                                                              XK  776                            Y186                  000248
3 XK  1550301J01APR2509APR25 23     MRS15301530+0200  AJA16201620+0200  320                                                              XK  776                            Y180                  000249
3 XK  1550401J04APR2504JUL25    5   MRS15301530+0200  AJA16201620+0200  32N                                                              XK  776                            Y186                  000250
3 XK  1550501J15APR2524SEP25 23     MRS15301530+0200  AJA16201620+0200  32N                                                              XK  776                            Y186                  000251
3 XK  1550601J09JUN2509JUN251       MRS15301530+0200  AJA16201620+0200  320                                                              XK  776                            Y180                  000252
3 XK  1550701J16JUN2520OCT251       MRS15301530+0200  AJA16201620+0200  32N                                                              XK  776                            Y186                  000253
3 XK  1550801J03JUL2528AUG25   4  7 MRS15301530+0200  AJA16201620+0200  320                                                              XK  776                            Y180                  000254
3 XK  1550901J11JUL2522AUG25    5   MRS15301530+0200  AJA16201620+0200  320                                                              XK  776                            Y180                  000255
3 XK  1551001J29AUG2524OCT25   45 7 MRS15301530+0200  AJA16201620+0200  32N                                                              XK  776                            Y186                  000256
3 XK  1551101J30SEP2521OCT25 2      MRS15301530+0200  AJA16201620+0200  320                                                              XK  776                            Y180                  000257
3 XK  1551201J01OCT2501OCT25  3     MRS15301530+0200  AJA16201620+0200  73H                                                              XK  776                            Y186                  000258
3 XK  1551301J08OCT2522OCT25  3     MRS15301530+0200  AJA16201620+0200  320                                                              XK  776                            Y180                  000259
3 XK  1560101J30MAR2511APR251   5 7 AJA18101810+0200  MRS19001900+0200  73H                                                              XK  157                            Y186                  000260
3 XK  1560201J01APR2512APR25 23  6  AJA18101810+0200  MRS19001900+0200  32N                                                              XK  157                            Y186                  000261
3 XK  1560301J03APR2510APR25   4    AJA18101810+0200  MRS19001900+0200  320                                                              XK  157                            Y180                  000262
3 XK  1560401J13APR2515APR25 2    7 AJA18101810+0200  MRS19001900+0200  320                                                              XK  157                            Y180                  000263
3 XK  1560501J14APR2502JUN251       AJA18401840+0200  MRS19301930+0200  73H                                                              XK  157                            Y186                  000264
3 XK  1560601J16APR2517APR25  34    AJA18101810+0200  MRS19001900+0200  73H                                                              XK  157                            Y186                  000265
3 XK  1560701J18APR2504JUL25    5   AJA18101810+0200  MRS19001900+0200  320                                                              XK  157                            Y180                  000266
3 XK  1560801J19APR2521JUN25     6  AJA18401840+0200  MRS19301930+0200  73H                                                              XK  157                            Y186                  000267
3 XK  1560901J20APR2522JUN25      7 AJA18101810+0200  MRS19001900+0200  73H                                                              XK  157                            Y186                  000268
3 XK  1561001J22APR2522APR25 2      AJA18201820+0200  MRS19101910+0200  320                                                              XK  157                            Y180                  000269
3 XK  1561101J23APR2524APR25  34    AJA18101810+0200  MRS19001900+0200  320                                                              XK  157                            Y180                  000270
3 XK  1561201J29APR2529APR25 2      AJA18101810+0200  MRS19001900+0200  32N                                                              XK  157                            Y186                  000271
3 XK  1561301J30APR2525JUN25  3     AJA18101810+0200  MRS19001900+0200  73H                                                              XK  157                            Y186                  000272
3 XK  1561401J01MAY2508MAY25   4    AJA18101810+0200  MRS19001900+0200  73H                                                              XK  157                            Y186                  000273
3 XK  1561501J06MAY2503JUN25 2      AJA18101810+0200  MRS19001900+0200  320                                                              XK  157                            Y180                  000274
3 XK  1561601J15MAY2505JUN25   4    AJA18101810+0200  MRS19001900+0200  320                                                              XK  157                            Y180                  000275
3 XK  1561701J09JUN2509JUN251       AJA18401840+0200  MRS19301930+0200  32N                                                              XK  157                            Y186                  000276
3 XK  1561801J10JUN2510JUN25 2      AJA18201820+0200  MRS19101910+0200  320                                                              XK  157                            Y180                  000277
3 XK  1561901J12JUN2526JUN25 2 4    AJA18101810+0200  MRS19001900+0200  73H                                                              XK  157                            Y186                  000278
3 XK  1562001J16JUN2516JUN251       AJA18401840+0200  MRS19301930+0200  73H                                                              XK  157                            Y186                  000279
3 XK  1562101J23JUN2508SEP251       AJA18401840+0200  MRS19301930+0200  320                                                              XK  157                            Y180                  000280
3 XK  1562201J28JUN2528JUN25     6  AJA18401840+0200  MRS19301930+0200  320                                                              XK  157                            Y180                  000281
3 XK  1562301J29JUN2505JUL25     67 AJA18101810+0200  MRS19001900+0200  320                                                              XK  157                            Y180                  000282
3 XK  1562401J01JUL2526AUG25 2      AJA18101810+0200  MRS19001900+0200  320                                                              XK  157                            Y180                  000283
3 XK  1562501J02JUL2527AUG25  3     AJA18401840+0200  MRS19301930+0200  320                                                              XK  157                            Y180                  000284
3 XK  1562601J03JUL2528AUG25   4    AJA18101810+0200  MRS19001900+0200  32N                                                              XK  157                            Y186                  000285
3 XK  1562701J06JUL2524AUG25    5 7 AJA18401840+0200  MRS19301930+0200  32N                                                              XK  157                            Y186                  000286
3 XK  1562801J12JUL2530AUG25     6  AJA18101810+0200  MRS19001900+0200  32N                                                              XK  157                            Y186                  000287
3 XK  1562901J29AUG2529AUG25    5   AJA18401840+0200  MRS19301930+0200  320                                                              XK  157                            Y180                  000288
3 XK  1563001J31AUG2531AUG25      7 AJA18401840+0200  MRS19301930+0200  73H                                                              XK  157                            Y186                  000289
3 XK  1563101J02SEP2504SEP25 2 4    AJA18101810+0200  MRS19001900+0200  73H                                                              XK  157                            Y186                  000290
3 XK  1563201J03SEP2524SEP25  3     AJA18101810+0200  MRS19001900+0200  73H                                                              XK  157                            Y186                  000291
3 XK  1563301J05SEP2503OCT25    5   AJA18101810+0200  MRS19001900+0200  320                                                              XK  157                            Y180                  000292
3 XK  1563401J06SEP2513SEP25     6  AJA18401840+0200  MRS19301930+0200  320                                                              XK  157                            Y180                  000293
3 XK  1563501J07SEP2519OCT25      7 AJA18101810+0200  MRS19001900+0200  73H                                                              XK  157                            Y186                  000294
3 XK  1563601J09SEP2525SEP25 2 4    AJA18101810+0200  MRS19001900+0200  320                                                              XK  157                            Y180                  000295
3 XK  1563701J15SEP2515SEP251       AJA18401840+0200  MRS19301930+0200  73H                                                              XK  157                            Y186                  000296
3 XK  1563801J20SEP2527SEP25     6  AJA18401840+0200  MRS19301930+0200  73H                                                              XK  157                            Y186                  000297
3 XK  1563901J22SEP2522SEP251       AJA18401840+0200  MRS19301930+0200  320                                                              XK  157                            Y180                  000298
3 XK  1564001J29SEP2520OCT251       AJA18101810+0200  MRS19001900+0200  73H                                                              XK  157                            Y186                  000299
3 XK  1564101J30SEP2522OCT25 23     AJA18101810+0200  MRS19001900+0200  32N                                                              XK  157                            Y186                  000300
3 XK  1564201J02OCT2502OCT25   4    AJA18101810+0200  MRS19001900+0200  73H                                                              XK  157                            Y186                  000301
3 XK  1564301J04OCT2504OCT25     6  AJA18101810+0200  MRS19001900+0200  320                                                              XK  157                            Y180                  000302
3 XK  1564401J09OCT2523OCT25   4    AJA18101810+0200  MRS19001900+0200  320                                                              XK  157                            Y180                  000303
3 XK  1564501J10OCT2524OCT25    5   AJA18101810+0200  MRS19001900+0200  73H                                                              XK  157                            Y186                  000304
3 XK  1564601J11OCT2525OCT25     6  AJA18101810+0200  MRS19001900+0200  32N                                                              XK  157                            Y186                  000305
3 XK  1570101J30MAR2507APR251     7 MRS20052005+0200  AJA20552055+0200  73H                                                              XK  770                            Y186                  000306
3 XK  1570201J01APR2508APR25 2      MRS20052005+0200  AJA20552055+0200  32N                                                              XK  770                            Y186                  000307
3 XK  1570301J02APR2509APR25  3     MRS20052005+0200  AJA20552055+0200  32N                                                              XK  150                            Y186                  000308
3 XK  1570401J03APR2510APR25   4    MRS20052005+0200  AJA20552055+0200  320                                                              XK  150                            Y180                  000309
3 XK  1570501J04APR2504APR25    5   MRS20052005+0200  AJA20552055+0200  73H                                                              XK  150                            Y186                  000310
3 XK  1570601J05APR2512APR25     6  MRS20052005+0200  AJA20552055+0200  32N                                                              XK  154                            Y186                  000311
3 XK  1570701J11APR2511APR25    5   MRS20052005+0200  AJA20552055+0200  73H                                                                                                 Y186                  000312
3 XK  1570801J13APR2513APR25      7 MRS20052005+0200  AJA20552055+0200  320                                                              XK  770                            Y180                  000313
3 XK  1570901J14APR2514APR251       MRS20352035+0200  AJA21252125+0200  73H                                                              XK  770                            Y186                  000314
3 XK  1571001J15APR2515APR25 2      MRS20052005+0200  AJA20552055+0200  320                                                              XK  900                            Y180                  000315
3 XK  1571101J16APR2517APR25  34    MRS20052005+0200  AJA20552055+0200  73H                                                              XK  770                            Y186                  000316
3 XK  1571201J18APR2518APR25    5   MRS20052005+0200  AJA20552055+0200  320                                                              XK  772                            Y180                  000317
3 XK  1571301J19APR2521JUN25     6  MRS20352035+0200  AJA21252125+0200  73H                                                              XK  790                            Y186                  000318
3 XK  1571401J20APR2501JUN25      7 MRS20052005+0200  AJA20552055+0200  73H                                                              XK  150                            Y186                  000319
3 XK  1571501J21APR2521APR251       MRS20352035+0200  AJA21252125+0200  73H                                                                                                 Y186                  000320
3 XK  1571601J22APR2522APR25 2      MRS20152015+0200  AJA21052105+0200  320                                                              XK  770                            Y180                  000321
3 XK  1571701J23APR2523APR25  3     MRS20052005+0200  AJA20552055+0200  320                                                              XK  770                            Y180                  000322
3 XK  1571801J24APR2524APR25   4    MRS20052005+0200  AJA20552055+0200  320                                                              XK  940                            Y180                  000323
3 XK  1571901J25APR2525APR25    5   MRS20052005+0200  AJA20552055+0200  320                                                              XK  900                            Y180                  000324
3 XK  1572001J28APR2502JUN251       MRS20352035+0200  AJA21252125+0200  73H                                                              XK  770                            Y186                  000325
3 XK  1572101J29APR2529APR25 2      MRS20052005+0200  AJA20552055+0200  32N                                                              XK  130                            Y186                  000326
3 XK  1572201J30APR2508MAY25  34    MRS20052005+0200  AJA20552055+0200  73H                                                              XK  770                            Y186                  000327
3 XK  1572301J02MAY2509MAY25    5   MRS20052005+0200  AJA20552055+0200  320                                                              XK  530                            Y180                  000328
3 XK  1572401J06MAY2506MAY25 2      MRS20052005+0200  AJA20552055+0200  320                                                              XK  130                            Y180                  000329
3 XK  1572501J13MAY2520MAY25 2      MRS20052005+0200  AJA20552055+0200  320                                                              XK  790                            Y180                  000330
3 XK  1572601J14MAY2514MAY25  3     MRS20052005+0200  AJA20552055+0200  73H                                                              XK  150                            Y186                  000331
3 XK  1572701J15MAY2522MAY25   4    MRS20052005+0200  AJA20552055+0200  320                                                              XK  774                            Y180                  000332
3 XK  1572801J16MAY2516MAY25    5   MRS20052005+0200  AJA20552055+0200  320                                                              XK  150                            Y180                  000333
3 XK  1572901J21MAY2525JUN25  3     MRS20052005+0200  AJA20552055+0200  73H                                                              XK  770                            Y186                  000334
3 XK  1573001J23MAY2523MAY25    5   MRS20052005+0200  AJA20552055+0200  320                                                              XK  399                            Y180                  000335
3 XK  1573101J27MAY2527MAY25 2      MRS20052005+0200  AJA20552055+0200  320                                                              XK  130                            Y180                  000336
3 XK  1573201J29MAY2529MAY25   4    MRS20052005+0200  AJA20552055+0200  320                                                              XK  940                            Y180                  000337
3 XK  1573301J30MAY2530MAY25    5   MRS20052005+0200  AJA20552055+0200  320                                                              XK  530                            Y180                  000338
3 XK  1573401J03JUN2503JUN25 2      MRS20052005+0200  AJA20552055+0200  320                                                              XK  790                            Y180                  000339
3 XK  1573501J05JUN2505JUN25   4    MRS20052005+0200  AJA20552055+0200  320                                                              XK  714                            Y180                  000340
3 XK  1573601J06JUN2506JUN25    5   MRS20052005+0200  AJA20552055+0200  320                                                              XK  399                            Y180                  000341
3 XK  1573701J08JUN2508JUN25      7 MRS20052005+0200  AJA20552055+0200  73H                                                              XK  772                            Y186                  000342
3 XK  1573801J09JUN2509JUN251       MRS20352035+0200  AJA21252125+0200  32N                                                              XK  150                            Y186                  000343
3 XK  1573901J10JUN2510JUN25 2      MRS20152015+0200  AJA21052105+0200  320                                                              XK  790                            Y180                  000344
3 XK  1574001J12JUN2526JUN25 2 4    MRS20052005+0200  AJA20552055+0200  73H                                                              XK  770                            Y186                  000345
3 XK  1574101J13JUN2527JUN25    5   MRS20052005+0200  AJA20552055+0200  320                                                              XK  530                            Y180                  000346
3 XK  1574201J15JUN2515JUN25      7 MRS20052005+0200  AJA20552055+0200  73H                                                              XK  150                            Y186                  000347
3 XK  1574301J16JUN2516JUN251       MRS20352035+0200  AJA21252125+0200  73H                                                              XK  770                            Y186                  000348
3 XK  1574401J22JUN2522JUN25      7 MRS20052005+0200  AJA20552055+0200  73H                                                              XK  772                            Y186                  000349
3 XK  1574501J23JUN2528JUN251    6  MRS20352035+0200  AJA21252125+0200  320                                                              XK  790                            Y180                  000350
3 XK  1574601J29JUN2505JUL25     67 MRS20052005+0200  AJA20552055+0200  320                                                              XK  150                            Y180                  000351
3 XK  1574701J30JUN2530JUN251       MRS20352035+0200  AJA21252125+0200  320                                                                                                 Y180                  000352
3 XK  1574801J01JUL2526AUG25 2      MRS20052005+0200  AJA20552055+0200  320                                                              XK  150                            Y180                  000353
3 XK  1574901J02JUL2527AUG25  3     MRS20352035+0200  AJA21252125+0200  320                                                              XK  150                            Y180                  000354
3 XK  1575001J03JUL2503JUL25   4    MRS20052005+0200  AJA20552055+0200  32N                                                              XK  150                            Y186                  000355
3 XK  1575101J04JUL2504JUL25    5   MRS20052005+0200  AJA20552055+0200  320                                                              XK  770                            Y180                  000356
3 XK  1575201J06JUL2524AUG25      7 MRS20352035+0200  AJA21252125+0200  32N                                                              XK  770                            Y186                  000357
3 XK  1575301J07JUL2507JUL251       MRS20352035+0200  AJA21252125+0200  320                                                              XK  900                            Y180                  000358
3 XK  1575401J10JUL2528AUG25   4 6  MRS20052005+0200  AJA20552055+0200  32N                                                              XK  770                            Y186                  000359
3 XK  1575501J11JUL2518JUL25    5   MRS20352035+0200  AJA21252125+0200  32N                                                              XK  770                            Y186                  000360
3 XK  1575601J14JUL2528JUL251       MRS20352035+0200  AJA21252125+0200  320                                                              XK  150                            Y180                  000361
3 XK  1575701J25JUL2525JUL25    5   MRS20352035+0200  AJA21252125+0200  32N                                                              XK  152                            Y186                  000362
3 XK  1575801J01AUG2522AUG25    5   MRS20352035+0200  AJA21252125+0200  32N                                                              XK  770                            Y186                  000363
3 XK  1575901J04AUG2504AUG251       MRS20352035+0200  AJA21252125+0200  320                                                              XK  900                            Y180                  000364
3 XK  1576001J11AUG2525AUG251       MRS20352035+0200  AJA21252125+0200  320                                                              XK  150                            Y180                  000365
3 XK  1576101J29AUG2529AUG25    5   MRS20352035+0200  AJA21252125+0200  320                                                              XK  150                            Y180                  000366
3 XK  1576201J30AUG2530AUG25     6  MRS20052005+0200  AJA20552055+0200  32N                                                              XK  150                            Y186                  000367
3 XK  1576301J31AUG2531AUG25      7 MRS20352035+0200  AJA21252125+0200  73H                                                              XK  772                            Y186                  000368
3 XK  1576401J01SEP2501SEP251       MRS20352035+0200  AJA21252125+0200  320                                                              XK  790                            Y180                  000369
3 XK  1576501J02SEP2504SEP25 2 4    MRS20052005+0200  AJA20552055+0200  73H                                                              XK  770                            Y186                  000370
3 XK  1576601J03SEP2524SEP25  3     MRS20052005+0200  AJA20552055+0200  73H                                                              XK  770                            Y186                  000371
3 XK  1576701J05SEP2512SEP25    5   MRS20052005+0200  AJA20552055+0200  320                                                              XK  150                            Y180                  000372
3 XK  1576801J06SEP2506SEP25     6  MRS20352035+0200  AJA21252125+0200  320                                                              XK 5300                            Y180                  000373
3 XK  1576901J07SEP2507SEP25      7 MRS20052005+0200  AJA20552055+0200  73H                                                              XK  772                            Y186                  000374
3 XK  1577001J08SEP2508SEP251       MRS20352035+0200  AJA21252125+0200  320                                                              XK  770                            Y180                  000375
3 XK  1577101J09SEP2523SEP25 2      MRS20052005+0200  AJA20552055+0200  320                                                              XK  790                            Y180                  000376
3 XK  1577201J11SEP2525SEP25   4    MRS20052005+0200  AJA20552055+0200  320                                                              XK  774                            Y180                  000377
3 XK  1577301J13SEP2513SEP25     6  MRS20352035+0200  AJA21252125+0200  320                                                              XK  772                            Y180                  000378
3 XK  1577401J14SEP2514SEP25      7 MRS20052005+0200  AJA20552055+0200  73H                                                              XK  150                            Y186                  000379
3 XK  1577501J15SEP2515SEP251       MRS20352035+0200  AJA21252125+0200  73H                                                              XK  770                            Y186                  000380
3 XK  1577601J19SEP2519SEP25    5   MRS20052005+0200  AJA20552055+0200  320                                                              XK  530                            Y180                  000381
3 XK  1577701J20SEP2527SEP25     6  MRS20352035+0200  AJA21252125+0200  73H                                                              XK  790                            Y186                  000382
3 XK  1577801J21SEP2521SEP25      7 MRS20052005+0200  AJA20552055+0200  73H                                                              XK  772                            Y186                  000383
3 XK  1577901J22SEP2522SEP251       MRS20352035+0200  AJA21252125+0200  320                                                              XK  770                            Y180                  000384
3 XK  1578001J26SEP2526SEP25    5   MRS20052005+0200  AJA20552055+0200  320                                                              XK  902                            Y180                  000385
3 XK  1578101J28SEP2519OCT25      7 MRS20052005+0200  AJA20552055+0200  73H                                                              XK  770                            Y186                  000386
3 XK  1578201J29SEP2502OCT251  4    MRS20052005+0200  AJA20552055+0200  73H                                                              XK  150                            Y186                  000387
3 XK  1578301J30SEP2521OCT25 2      MRS20052005+0200  AJA20552055+0200  32N                                                              XK  770                            Y186                  000388
3 XK  1578401J01OCT2522OCT25  3     MRS20052005+0200  AJA20552055+0200  32N                                                              XK  150                            Y186                  000389
3 XK  1578501J03OCT2503OCT25    5   MRS20052005+0200  AJA20552055+0200  320                                                              XK  790                            Y180                  000390
3 XK  1578601J04OCT2504OCT25     6  MRS20052005+0200  AJA20552055+0200  320                                                              XK  154                            Y180                  000391
3 XK  1578701J06OCT2520OCT251       MRS20052005+0200  AJA20552055+0200  73H                                                              XK  770                            Y186                  000392
3 XK  1578801J09OCT2509OCT25   4    MRS20052005+0200  AJA20552055+0200  320                                                              XK  900                            Y180                  000393
3 XK  1578901J10OCT2524OCT25    5   MRS20052005+0200  AJA20552055+0200  73H                                                              XK  150                            Y186                  000394
3 XK  1579001J11OCT2518OCT25     6  MRS20052005+0200  AJA20552055+0200  32N                                                              XK  154                            Y186                  000395
3 XK  1579101J16OCT2516OCT25   4    MRS20052005+0200  AJA20552055+0200  320                                                              XK  150                            Y180                  000396
3 XK  1579201J23OCT2523OCT25   4    MRS20052005+0200  AJA20552055+0200  320                                                              XK  154                            Y180                  000397
3 XK  1579301J25OCT2525OCT25     6  MRS20052005+0200  AJA20552055+0200  32N                                                              XK  774                            Y186                  000398
3 XK  2010101J30MAR2529JUN25      7 NCE10201020+0200  BIA11101110+0200  AT7                                                              XK  204                            Y72                   000399
3 XK  2010201J31MAR2507APR251       NCE06550655+0200  BIA07450745+0200  AT7                                                              XK  232                            Y72                   000400
3 XK  2010301J01APR2508JUL25 2      NCE06550655+0200  BIA07450745+0200  AT7                                                              XK  204                            Y72                   000401
3 XK  2010401J02APR2523APR25  3     NCE06550655+0200  BIA07450745+0200  AT7                                                              XK  232                            Y72                   000402
3 XK  2010501J03APR2524APR25   4    NCE06550655+0200  BIA07450745+0200  AT7                                                              XK  204                            Y72                   000403
3 XK  2010601J04APR2513JUN25    5   NCE06550655+0200  BIA07450745+0200  AT7                                                              XK  252                            Y72                   000404
3 XK  2010701J05APR2528JUN25     6  NCE06550655+0200  BIA07450745+0200  AT7                                                              XK  252                            Y72                   000405
3 XK  2010801J14APR2502JUN251       NCE06550655+0200  BIA07450745+0200  AT7                                                              XK  204                            Y72                   000406
3 XK  2010901J30APR2507MAY25  3     NCE06550655+0200  BIA07450745+0200  AT7                                                              XK  204                            Y72                   000407
3 XK  2011001J01MAY2508MAY25   4    NCE06550655+0200  BIA07450745+0200  AT7                                                              XK  620                            Y72                   000408
3 XK  2011101J14MAY2522OCT25  3     NCE06550655+0200  BIA07450745+0200  AT7                                                              XK  232                            Y72                   000409
3 XK  2011201J15MAY2529MAY25   4    NCE06550655+0200  BIA07450745+0200  AT7                                                              XK  204                            Y72                   000410
3 XK  2011301J05JUN2528AUG251  4    NCE06550655+0200  BIA07450745+0200  AT7                                                              XK  716                            Y72                   000411
3 XK  2011401J20JUN2520JUN25    5   NCE06550655+0200  BIA07450745+0200  AT7                                                              XK  728                            Y72                   000412
3 XK  2011501J27JUN2524OCT25    5   NCE06550655+0200  BIA07450745+0200  AT7                                                              XK  252                            Y72                   000413
3 XK  2011601J05JUL2530AUG25     6  NCE06550655+0200  BIA07450745+0200  AT7                                                              XK  204                            Y72                   000414
3 XK  2011701J06JUL2531AUG25      7 NCE10501050+0200  BIA11401140+0200  AT7                                                              XK  204                            Y72                   000415
3 XK  2011801J15JUL2530SEP25 2      NCE06550655+0200  BIA07450745+0200  AT7                                                              XK  240                            Y72                   000416
3 XK  2011901J01SEP2522SEP251       NCE06550655+0200  BIA07450745+0200  AT7                                                              XK  204                            Y72                   000417
3 XK  2012001J04SEP2523OCT25   4    NCE06550655+0200  BIA07450745+0200  AT7                                                              XK  204                            Y72                   000418
3 XK  2012101J06SEP2525OCT25     6  NCE06550655+0200  BIA07450745+0200  AT7                                                              XK  252                            Y72                   000419
3 XK  2012201J07SEP2519OCT25      7 NCE10201020+0200  BIA11101110+0200  AT7                                                              XK  204                            Y72                   000420
3 XK  2012301J29SEP2520OCT251       NCE06550655+0200  BIA07450745+0200  AT7                                                              XK  232                            Y72                   000421
3 XK  2012401J07OCT2521OCT25 2      NCE06550655+0200  BIA07450745+0200  AT7                                                              XK  204                            Y72                   000422
3 XK  2020101J30MAR2529JUN25      7 BIA08400840+0200  NCE09300930+0200  AT7                                                              XK  201                            Y72                   000423
3 XK  2020201J31MAR2525OCT25123456  BIA05300530+0200  NCE06200620+0200  AT7                                                              XK  201                            Y72                   000424
3 XK  2020301J06JUL2531AUG25      7 BIA05300530+0200  NCE06200620+0200  AT7                                                              XK  407                            Y72                   000425
3 XK  2020401J07SEP2519OCT25      7 BIA08400840+0200  NCE09300930+0200  AT7                                                              XK  201                            Y72                   000426
3 XK  2030101J30MAR2522OCT25123   7 NCE14501450+0200  BIA15401540+0200  AT7                                                              XK  206                            Y72                   000427
3 XK  2030201J03APR2522MAY25   4    NCE14501450+0200  BIA15401540+0200  AT7                                                              XK  206                            Y72                   000428
3 XK  2030301J04APR2512APR25    56  NCE14501450+0200  BIA15401540+0200  AT7                                                              XK  206                            Y72                   000429
3 XK  2030401J18APR2509MAY25    5   NCE12401240+0200  BIA13301330+0200  AT7                                                              XK  204                            Y72                   000430
3 XK  2030501J19APR2528JUN25     6  NCE15051505+0200  BIA15551555+0200  AT7                                                              XK  206                            Y72                   000431
3 XK  2030601J16MAY2516MAY25    5   NCE12401240+0200  BIA13201320+0200  32N                                                              XK  204                            Y186                  000432
3 XK  2030701J23MAY2520JUN25    5   NCE12401240+0200  BIA13301330+0200  AT7                                                              XK  204                            Y72                   000433
3 XK  2030801J29MAY2529MAY25   4    NCE10001000+0200  BIA10501050+0200  AT7                                                              XK  206                            Y72                   000434
3 XK  2030901J05JUN2523OCT25   4    NCE14501450+0200  BIA15401540+0200  AT7                                                              XK  206                            Y72                   000435
3 XK  2031001J27JUN2504JUL25    5   NCE14501450+0200  BIA15401540+0200  AT7                                                              XK  206                            Y72                   000436
3 XK  2031101J05JUL2530AUG25     6  NCE10201020+0200  BIA11101110+0200  AT7                                                              XK  234                            Y72                   000437
3 XK  2031201J11JUL2529AUG25    5   NCE13151315+0200  BIA14051405+0200  AT7                                                              XK  204                            Y72                   000438
3 XK  2031301J05SEP2526SEP25    5   NCE12501250+0200  BIA13401340+0200  AT7                                                              XK  204                            Y72                   000439
3 XK  2031401J06SEP2527SEP25     6  NCE15051505+0200  BIA15551555+0200  AT7                                                              XK  206                            Y72                   000440
3 XK  2031501J03OCT2525OCT25    56  NCE14501450+0200  BIA15401540+0200  AT7                                                              XK  206                            Y72                   000441
3 XK  2040101J30MAR2522OCT25123   7 BIA13051305+0200  NCE13551355+0200  AT7                                                              XK  203                            Y72                   000442
3 XK  2040201J03APR2522MAY25   4    BIA13051305+0200  NCE13551355+0200  AT7                                                              XK  203                            Y72                   000443
3 XK  2040301J04APR2512APR25    56  BIA13051305+0200  NCE13551355+0200  AT7                                                              XK  203                            Y72                   000444
3 XK  2040401J18APR2509MAY25    5   BIA14051405+0200  NCE14551455+0200  AT7                                                              XK  311                            Y72                   000445
3 XK  2040501J19APR2528JUN25     6  BIA13201320+0200  NCE14101410+0200  AT7                                                              XK  203                            Y72                   000446
3 XK  2040601J16MAY2516MAY25    5   BIA14051405+0200  NCE14451445+0200  32N                                                              XK  311                            Y186                  000447
3 XK  2040701J23MAY2520JUN25    5   BIA14051405+0200  NCE14551455+0200  AT7                                                              XK  311                            Y72                   000448
3 XK  2040801J29MAY2529MAY25   4    BIA08200820+0200  NCE09100910+0200  AT7                                                              XK  203                            Y72                   000449
3 XK  2040901J05JUN2523OCT25   4    BIA13051305+0200  NCE13551355+0200  AT7                                                              XK  203                            Y72                   000450
3 XK  2041001J27JUN2504JUL25    5   BIA13051305+0200  NCE13551355+0200  AT7                                                              XK  203                            Y72                   000451
3 XK  2041101J05JUL2530AUG25     6  BIA08400840+0200  NCE09300930+0200  AT7                                                              XK  203                            Y72                   000452
3 XK  2041201J11JUL2529AUG25    5   BIA14351435+0200  NCE15251525+0200  AT7                                                              XK  311                            Y72                   000453
3 XK  2041301J05SEP2526SEP25    5   BIA14151415+0200  NCE15051505+0200  AT7                                                              XK  311                            Y72                   000454
3 XK  2041401J06SEP2527SEP25     6  BIA13201320+0200  NCE14101410+0200  AT7                                                              XK  203                            Y72                   000455
3 XK  2041501J03OCT2525OCT25    56  BIA13051305+0200  NCE13551355+0200  AT7                                                              XK  203                            Y72                   000456
3 XK  2050101J30MAR2524OCT2512345 7 NCE18201820+0200  BIA19101910+0200  AT7                                                              XK  202                            Y72                   000457
3 XK  2050201J05APR2528JUN25     6  NCE18201820+0200  BIA19101910+0200  AT7                                                              XK  250                            Y72                   000458
3 XK  2050301J05JUL2530AUG25     6  NCE18201820+0200  BIA19101910+0200  AT7                                                              XK  202                            Y72                   000459
3 XK  2050401J06SEP2525OCT25     6  NCE18201820+0200  BIA19101910+0200  AT7                                                              XK  250                            Y72                   000460
3 XK  2060101J30MAR2525OCT251234567 BIA16301630+0200  NCE17201720+0200  AT7                                                              XK  205                            Y72                   000461
3 XK  2320101J31MAR2509APR251 3     BIA08350835+0200  LYS10051005+0200  AT7                                                              XK  233                            Y72                   000462
3 XK  2320201J05APR2512APR25     6  BIA08450845+0200  LYS09500950+0200  32N                                                              XK  233                            Y186                  000463
3 XK  2320301J14APR2530JUN251     7 BIA09450945+0200  LYS10501050+0200  32N                                                              XK  233                            Y186                  000464
3 XK  2320401J16APR2523APR25  3     BIA08200820+0200  LYS09500950+0200  AT7                                                              XK  233                            Y72                   000465
3 XK  2320501J18APR2520JUN25    5   BIA17551755+0200  LYS19001900+0200  73H                                                              XK  131                            Y186                  000466
3 XK  2320601J19APR2528JUN25     6  BIA08150815+0200  LYS09200920+0200  32N                                                              XK  233                            Y186                  000467
3 XK  2320701J30APR2507MAY25  3     BIA10251025+0200  LYS11301130+0200  320                                                              XK  131                            Y180                  000468
3 XK  2320801J14MAY2524SEP25  3     BIA08200820+0200  LYS09500950+0200  AT7                                                              XK  233                            Y72                   000469
3 XK  2320901J27JUN2527JUN25    5   BIA17551755+0200  LYS19001900+0200  320                                                              XK  131                            Y180                  000470
3 XK  2321001J04JUL2529AUG25    5   BIA17401740+0200  LYS18451845+0200  320                                                              XK  131                            Y180                  000471
3 XK  2321101J05JUL2530AUG25     6  BIA08450845+0200  LYS09500950+0200  32N                                                              XK  233                            Y186                  000472
3 XK  2321201J06JUL2531AUG25      7 BIA14551455+0200  LYS16001600+0200  32N                                                              XK  233                            Y186                  000473
3 XK  2321301J07JUL2511AUG251       BIA08500850+0200  LYS09550955+0200  320                                                              XK  131                            Y180                  000474
3 XK  2321401J18AUG2518AUG251       BIA08500850+0200  LYS09550955+0200  32N                                                              XK  233                            Y186                  000475
3 XK  2321501J25AUG2525AUG251       BIA08500850+0200  LYS09550955+0200  320                                                              XK  131                            Y180                  000476
3 XK  2321601J01SEP2528SEP251     7 BIA09450945+0200  LYS10501050+0200  32N                                                              XK  233                            Y186                  000477
3 XK  2321701J05SEP2526SEP25    5   BIA17551755+0200  LYS19001900+0200  73H                                                              XK  131                            Y186                  000478
3 XK  2321801J06SEP2527SEP25     6  BIA08150815+0200  LYS09200920+0200  32N                                                              XK  233                            Y186                  000479
3 XK  2321901J29SEP2522OCT251 3     BIA08350835+0200  LYS10051005+0200  AT7                                                              XK  233                            Y72                   000480
3 XK  2322001J04OCT2525OCT25     6  BIA08450845+0200  LYS09500950+0200  32N                                                              XK  233                            Y186                  000481
3 XK  2330101J31MAR2509APR251 3     LYS10551055+0200  BIA12251225+0200  AT7                                                              XK  204                            Y72                   000482
3 XK  2330201J05APR2512APR25     6  LYS10551055+0200  BIA12001200+0200  32N                                                              XK  792                            Y186                  000483
3 XK  2330301J14APR2530JUN251     7 LYS11551155+0200  BIA13001300+0200  32N                                                              XK  254                            Y186                  000484
3 XK  2330401J16APR2523APR25  3     LYS10401040+0200  BIA12101210+0200  AT7                                                              XK  204                            Y72                   000485
3 XK  2330501J18APR2520JUN25    5   LYS16051605+0200  BIA17101710+0200  73H                                                              XK  232                            Y186                  000486
3 XK  2330601J19APR2528JUN25     6  LYS10051005+0200  BIA11101110+0200  32N                                                              XK  792                            Y186                  000487
